:100000000C948E050C94D2050C94D2050C94D20558
:100010000C94D2050C94D2050C94D2050C94D20504
:100020000C94D2050C94D2050C94510D0C94230E13
:100030000C94141C0C94D2050C94D2050C94D2058B
:100040000C94D2050C94D2050C94D2050C94D205D4
:100050000C94D2050C94881C0C94D2050C94D205F7
:100060000C94D2050C94D2050C94D2050C94D205B4
:100070000C94D2050C94D2050C94D2050C94D205A4
:100080000C94D2050C94D2050C94D2050C94D20594
:100090000C94D2050C94D2050C94D2050C94D20584
:1000A0000C94D2050C94D2050C94D205900EB20E8D
:1000B000A00FB20EA00FF70E1A0FA00F6F0F820F36
:1000C000CE12CE12FB12FB12561392138A158A150A
:1000D000AA138A15A514A51460158A158A15761514
:1000E000F1A13932291E1F20212223242526272D64
:1000F0002E002A2B141A0815171C180C12132F3057
:100100003100C0041607090A0B0D0E0F3334002806
:1001100000E1001D1B061905111036373800C1001B
:10012000E0E3E20000002C000000E6E748E40035D0
:100130003A3B3C3D3E3F404142434445004C000079
:100140000000000000000000464A4D0000010000D1
:100150000000005051524F0000000000E10000007C
:1001600000000000004B4E0000C100E0E3E2000090
:10017000002C000000E6E700E4000A0025303136DC
:1001800062003A200025303258000A722F63203076
:100190003132333435363738394142434445460AE3
:1001A000000A002530325800626F756E6365213A8F
:1001B00020005B735D004B6579626F617264207330
:1001C000746172742E0A0055534220636F6E666923
:1001D00067757265642E0A005B575D005B535D00B6
:1001E0005B525D005B445D005B435D000C035300AC
:1001F000360030002D0058000000080376006E0025
:10020000630000000403090409027400040100A053
:10021000320904000001030101000921110100015C
:10022000223F000705810308000A090401000103B9
:10023000010200092111010001224D00070582037E
:1002400008000A090402000103000000092111014D
:1002500000012236000705830308000A0904030091
:1002600002030000000921110100012220000705FE
:10027000840320000107050403200001120110017E
:1002800000000008DAF066060100010200010631F4
:10029000FF0974A1010975150025FF9520750881D6
:1002A000020976150025FF952075089102C0050109
:1002B0000980A101850216010026B7001A01002A53
:1002C000B700751095018100C0050C0901A10185D9
:1002D00003160100269C021A01002A9C0275109543
:1002E000018100C005010902A1010901A100050960
:1002F0001901290515002501950575018102950152
:10030000750381010501093009311581257F9502A9
:100310007508810609381581257F950175088106C4
:10032000050C0A38021581257F950175088106C0E4
:10033000C005010906A101050719E029E7150025F7
:10034000019508750181029501750881010508195B
:100350000129059505750191029501750391010526
:1003600007190029FF150025FF950675088100C0B3
:100370000A002530325820006B6579626F61726423
:100380005F7265706F72743A20000A00253032582F
:10039000006B6579626F6172645F7365745F6C6531
:1003A000643A2000646F6E652E0A00626F6F746D90
:1003B00061676963207363616E3A202E2E2E2000E0
:1003C000290A002575002F002575005D2800256489
:1003D0000020002564002000256400200025640022
:1003E0007C0025303258006D6F7573656B65792020
:1003F0005B62746E7C782079207620685D28726557
:10040000702F61636C293A205B006D6B5F776865C4
:10041000656C5F74696D655F746F5F6D6178203DB9
:100420002025640A006D6B5F776865656C5F6D61A0
:10043000785F7370656564203D2025640A006D6BEC
:100440005F74696D655F746F5F6D6178203D202515
:10045000640A006D6B5F6D61785F73706565642021
:100460003D2025640A006D6B5F696E74657276616C
:100470006C203D2025640A006D6B5F64656C6179BA
:10048000203D2025640A006D6B5F776865656C5FB1
:1004900074696D655F746F5F6D6178203D202564C0
:1004A0000A006D6B5F776865656C5F6D61785F737F
:1004B00070656564203D2025640A006D6B5F74697A
:1004C0006D655F746F5F6D6178203D2025640A0063
:1004D0006D6B5F6D61785F7370656564203D20258D
:1004E000640A006D6B5F696E74657276616C203DA5
:1004F0002025640A006D6B5F64656C6179203D2086
:1005000025640A000A00257500363A20776865657B
:100510006C5F74696D655F746F5F6D61783A200020
:100520000A00257500353A20776865656C5F6D6156
:10053000785F73706565643A20000A0025750034A1
:100540003A2074696D655F746F5F6D61783A200061
:100550000A00257500333A206D61785F7370656518
:10056000643A20000A00257500323A20696E7465ED
:100570007276616C286D73293A20000A0025750097
:10058000313A2064656C6179282A31306D73293ADB
:1005900020000A092D2056616C756573202D0A0014
:1005A0004D3E004D25643E20003F0073657420647D
:1005B000656661756C740A00433E20007768657259
:1005C000652064656C74613A20637572736F723D67
:1005D00025642C20776865656C3D25640A53656544
:1005E00020687474703A2F2F656E2E77696B69706E
:1005F000656469612E6F72672F77696B692F4D6F24
:100600007573655F6B6579730A000A092D204D6F5C
:100610007573656B6579202D0A4553432F713A092F
:10062000717569740A313A0964656C6179282A31F7
:10063000306D73290A323A09696E74657276616C9D
:10064000286D73290A333A096D61785F73706565A7
:10065000640A343A0974696D655F746F5F6D61781F
:100660000A353A09776865656C5F6D61785F73700C
:100670006565640A363A09776865656C5F74696D0B
:10068000655F746F5F6D61780A0A703A097072690C
:100690006E742076616C7565730A643A09736574CB
:1006A0002064656661756C74730A75703A092B3144
:1006B0000A646F776E3A092D310A706775703A09CE
:1006C0002B31300A7067646F776E3A092D31300A2A
:1006D0000A7370656564203D2064656C7461202A2E
:1006E000206D61785F7370656564202A20287265CB
:1006F00070656174202F2074696D655F746F5F6D24
:100700006178290A003F004D3E2000433E20004C06
:1007100025640A000A092D20436F6E736F6C6520F3
:100720002D0A4553432F713A09717569740A6D3A60
:10073000096D6F7573656B65790A000A092D204D87
:1007400061676963202D0A643A0964656275670A06
:10075000783A096465627567206D61747269780A18
:100760006B3A096465627567206B6579626F6172C7
:10077000640A6D3A096465627567206D6F7573650B
:100780000A763A0976657273696F6E0A733A09736D
:1007900074617475730A633A09636F6E736F6C6585
:1007A000206D6F64650A302D343A096C6179657289
:1007B000302D34284631302D4634290A5061757366
:1007C0003A09626F6F746C6F616465720A653A0909
:1007D000656570726F6D0A000A002575002E6E6BDC
:1007E000726F3A20000A002575002E737761705FE2
:1007F0006261636B736C6173685F6261636B73707A
:100800006163653A20000A002575002E73776170D8
:100810005F67726176655F6573633A20000A002541
:1008200075002E6E6F5F6775693A20000A002575A6
:10083000002E737761705F72616C745F72677569A7
:100840003A20000A002575002E737761705F6C6195
:100850006C745F6C6775693A20000A002575002E7C
:10086000636170736C6F636B5F746F5F636F6E74E3
:10087000726F6C3A20000A002575002E7377617044
:100880005F636F6E74726F6C5F636170736C6F63C4
:100890006B3A20000A0025303258006B65796D6193
:1008A000705F636F6E6669672E7261773A20000A27
:1008B000002575002E6D6F7573653A20000A0025BE
:1008C00075002E6B6579626F6172643A20000A00D0
:1008D0002575002E6D61747269783A20000A002532
:1008E00075002E656E61626C653A20000A00253045
:1008F00032580064656275675F636F6E6669672E64
:100900007261773A20000A0025750064656661759A
:100910006C745F6C617965723A20003F0074696D98
:1009200065725F72656164333228293A202530345C
:100930006C580A006B6579626F6172645F69646C00
:10094000653A2025580A006B6579626F6172645FB1
:1009500070726F746F636F6C3A2025580A00686F6D
:1009600073745F6B6579626F6172645F6C656473E9
:1009700028293A2025580A000A092D205374617449
:100980007573202D0A004743433A20342E392E3305
:10099000204156522D4C4942433A20312E382E31B7
:1009A000204156525F415243483A20617672350ADF
:1009B000004F5054494F4E533A204C554641204227
:1009C0004F4F544D41474943204D4F5553454B459B
:1009D000592045585452414B455920434F4E534F8F
:1009E0004C4520434F4D4D414E4420343039360A5A
:1009F000004255494C443A20396135636161362DD6
:100A00006469727479202832323A35313A313920AA
:100A10004D61722032392032303136290A00564970
:100A2000443A2030784630444128766E632920507D
:100A300049443A20307830363636285336302D58EF
:100A400029205645523A203078303030310A00445F
:100A50004553433A20742E6D2E6B2E206B657962C0
:100A60006F617264206669726D7761726520666F6E
:100A7000722053656E74726171205336302D580A9E
:100A8000000A092D2056657273696F6E202D0A00C9
:100A90000A6D6F7573653A206F66660A000A6D6F9E
:100AA0007573653A206F6E0A000A6B6579626F6133
:100AB00072643A206F66660A000A6B6579626F613C
:100AC00072643A206F6E0A000A6D61747269783A36
:100AD000206F66660A000A6D61747269783A206F49
:100AE0006E0A000A64656275673A206F6E0A000A32
:100AF00064656275673A206F66660A000A0A626F6B
:100B00006F746C6F616465722E2E2E2000433E2040
:100B1000006565636F6E6669673A0A0011241FBE3F
:100B2000CFEFDAE0DEBFCDBF04B603FE24C0809174
:100B3000D0019091D101A091D201B091D301873021
:100B4000904BA740B04BB9F41092D0011092D10154
:100B50001092D2011092D30114BE84B7877F84BF54
:100B600088E10FB6F89480936000109260000FBE89
:100B7000E0E0F8E3099511E0A0E0B1E0EEE7F1E58F
:100B800002C005900D92A233B107D9F711E0A2E39C
:100B9000B1E001C01D92A03DB107E1F70E94850AB6
:100BA0000C94BD280C940000FF93EF93E091320168
:100BB000F0913301309709F00995EF91FF91089575
:100BC000FC018591803011F0EFDFFBCF0895FF2706
:100BD000E0E230E247FF0CC0419597FF09C0EDE22B
:100BE0006095709580959095611D711D811D911D79
:100BF00027FF02C0219530E350E2AA27660F771F36
:100C0000881F991FAA1FA41710F0A41B63955A955B
:100C1000A9F7AA3008F0A95FA05DAF93F39561151D
:100C200071058105910541F7ED3211F4EF93F395CC
:100C3000F21718F43F93F395FBCF8F91B5DFFA9538
:100C4000E1F70895E991F9918591803021F085329D
:100C500019F0AADFF9CF089520E0E89455915532B4
:100C6000C1F3503311F4689455915A3348F45053FA
:100C700090F3220F022E220F220F200D250FF4CF0A
:100C80000EF4219589919991533619F3533729F12F
:100C9000533559F1BC0188279927E8945C3621F433
:100CA0008991999168945591543639F446EF7EF0C4
:100CB00077FF0DC08FEF9FEF0AC055374AE039F03C
:100CC000583540E121F0523642E009F00895FF9393
:100CD000EF937DDFEF91FF91B7CFFF93EF93FC018F
:100CE00081918030B9F360DFFBCFFF93EF9368DF32
:100CF000F1CFDF93CF93CDB7DEB72596A3DFCF91AA
:100D0000DF9108959FE0799FF00111249BE4899F72
:100D1000E00DF11D1124E60FF11DEC51FF4F849100
:100D20000895E82FF0E0EE0FFF1FE05AF0408591A4
:100D30009491089584B1807784B985B1807785B91D
:100D400008950E949A068598899A6E98769A8AB133
:100D50001AB88BB18FEF8BB987B18F7387B988B110
:100D6000806C88B984B18F7884B985B1806785B982
:100D7000EEE3F1E0A4E3B1E0119211921D921D9215
:100D800081E0E834F807C1F70895CF92DF92EF923F
:100D9000FF920F931F93CF93DF9304E311E0E801D9
:100DA000C12CDD24D394E3EAEE2EE1E0FE2E82E0B6
:100DB000C81691F08C1520F091E0C91651F006C0CC
:100DC000A3E0CA1661F0B4E0CB1661F0279A2F9821
:100DD0000BC0239A2B9808C0229A2A9805C0219A02
:100DE000299802C0209A289880EA8A95F1F789B15B
:100DF00081708D2590E0499903C022E030E002C067
:100E000020E030E0822B932B4A9903C024E030E0AD
:100E100002C020E030E0822B932B4B9903C028E0E6
:100E200030E002C020E030E0822B932B4D9903C0CC
:100E3000E0E1F0E002C0E0E0F0E08E2B9F2B4C9967
:100E400003C060E270E002C060E070E0862B972B88
:100E50004E9903C020E430E002C020E030E0AC0155
:100E6000422B532B29B1332727FD30952095309500
:100E7000C9018827990F881F99279695982F882749
:100E800097958795842B952B1C9903C0E0E0F1E0A2
:100E900002C0E0E0F0E08E2B9F2B1D9903C0E0E044
:100EA000F2E002C0E0E0F0E08E2B9F2B1E9903C021
:100EB00060E074E002C060E070E0862B972B36990A
:100EC00003C020E038E002C020E030E0AC01422B5B
:100ED000532B26B1332727FD309520953095C90136
:100EE0008827990F881F9927982F88279295907F98
:100EF000842B952B669903C020E030E202C020E0ED
:100F000030E0822B932B799903C020E030E402C0BB
:100F100020E030E0822B932B288139812817390774
:100F200049F19983888380910001882301F18091A0
:100F3000B10180FF04C088EA91E00E94E005809141
:100F4000B10180FF0CC0809100011F928F93FF922E
:100F5000EF920E9479060F900F900F900F90809162
:100F6000B10180FF04C081EA91E00E94E00585E0C4
:100F7000809300010E949A06C394229695E0C912BC
:100F800016CF809100018823C1F081508093000129
:100F9000882339F0AFE9BFE01197F1F700C00000F6
:100FA0000CC0EEE3F1E0D8018D919D918D0181930C
:100FB0009193B1E00E331B07B1F781E0DF91CF9140
:100FC0001F910F91FF90EF90DF90CF900895E82F41
:100FD000F0E0EE0FFF1FE25CFE4F808191810895EB
:100FE000CF92DF92EF92FF920F931F93CF93DF93F5
:100FF0008AE891E00E94E0058EE3E82E81E0F82E79
:10100000C0E0D0E095E8C92E91E0D92E0CE711E0C0
:10101000DF93CF93DF92CF920E94790682E891E02E
:101020000E94E005F701819191917F010E94BB1B15
:101030009F938F931F930F930E9479068AE791E005
:101040000E94E00521968DB79EB708960FB6F894DA
:101050009EBF0FBE8DBFC530D105D1F6DF91CF91B8
:101060001F910F91FF90EF90DF90CF90089508951A
:101070008091530108959FB7F89410924A019FBF41
:101080009091C601943009F057C09091E9009F708B
:101090003091EC00232F217030FD20E8922B24E0CA
:1010A0002093E9002091EB0020FF43C02091EE0047
:1010B00027FF3FC020914801222321F02091E80022
:1010C00025FF37C01092480126E03091E80035FD39
:1010D00015C03091C601343061F53091EB0035FD1B
:1010E00028C0215021F481E08093480122C0EFE91B
:1010F000FFE03197F1F700C00000E7CF8093F100E7
:101100008091E80085FD0AC08091E80080FFFCCF57
:101110008091E8008E778093E80006C08FB7F8943E
:1011200021E020934A018FBF9F709093E90080E0F7
:1011300008959F709093E9008FEF0895CF93DF9308
:1011400000D01F92CDB7DEB79C018091C6018430DC
:1011500019F593E099833B832A839093E9008FEFFD
:101160009091E800815095FD06C095ED9A95F1F7B4
:1011700000008111F5CF8091E80085FF0DC040E0AF
:1011800050E063E070E0CE0101960E94410B809137
:10119000E8008E778093E8000F900F900F90DF911A
:1011A000CF910895CF93DF9300D01F92CDB7DEB7D4
:1011B0002091C601243021F522E029839B838A8374
:1011C00083E08093E9008FEF9091E800815095FDD6
:1011D00006C095ED9A95F1F700008111F5CF809149
:1011E000E80085FF0DC040E050E063E070E0CE0114
:1011F00001960E94410B8091E8008E778093E80071
:101200000F900F900F90DF91CF9108952091C6011C
:101210002430F1F422E02093E9002FEF3091E80030
:10122000215035FD06C035ED3A95F1F7000021114A
:10123000F5CF2091E80025FF0BC040E050E065E0CD
:1012400070E00E94410B8091E8008E778093E80067
:101250000895CF93DF932091C601243039F521E022
:101260002093E9002FEF3091E800215035FD06C0B2
:1012700035ED3A95F1F700002111F5CF2091E80006
:1012800025FF14C0EC0140E050E068E070E00E94EF
:10129000410B8091E8008E778093E80088E0FE01A2
:1012A000ABE4B1E001900D928A95E1F7DF91CF9127
:1012B000089588EE91E00E94E0058091C5018111BA
:1012C00009C00E94D60C0E94330D8091E200846018
:1012D0008093E200089584EE91E00E94E005109270
:1012E000C501089580EE91E00C94E0058CED91E04D
:1012F0000C94E00588ED91E00E94E0050C94121C2E
:10130000209149012F5F822F62E30E945228992386
:1013100019F02093490108951092490180914A01E2
:10132000882371F18091C601843041F58091E900F4
:101330008F702091EC00922F917020FD90E8892B06
:1013400094E09093E9009091EB0090FF14C090918D
:10135000EE0097FF10C09091E80095FF03C0109237
:10136000F100F9CF9091E80090FF05C09091E8005E
:101370009E779093E8008F708093E90010924A0165
:10138000089542E061EC81E00E94500C42E061EC83
:1013900082E00E94500C42E061EC83E00E94500C1D
:1013A00042E261EC84E00C94500C8091C8018330DF
:1013B00009F453C030F4813071F0823009F48CC0EC
:1013C00008958A3009F478C08B3009F45EC0893002
:1013D00009F09AC020C08091C701813A09F094C0F9
:1013E0008091E800877F8093E8008091CB01909105
:1013F000CC01892B21F468E08BE491E003C060E02C
:1014000080E090E070E00E948C0B8091E8008B7788
:101410008093E80008958091C701813209F074C07B
:101420008091CB019091CC01892B09F06DC0809106
:10143000E800877F8093E8008091E80082FD05C086
:101440008091C6018111F8CF5FC08091F100809337
:1014500053018091E8008B7753C08091C701813A96
:1014600009F052C08091CB019091CC01892B09F0F9
:101470004BC08091E800877F8093E8008091E8006E
:1014800080FFFCCF80910B0136C08091C701813273
:10149000D9F58091CB019091CC01892BA9F5809150
:1014A000E800877F8093E8000E94850C8091C90145
:1014B00080930B010C94AB158091C701813221F50B
:1014C0008091E800877F8093E8000E94850C8091DE
:1014D000CA018093540108958091C701813AA1F413
:1014E0008091E800877F8093E8008091E80080FF8A
:1014F000FCCF809154018093F1008091E8008E77B9
:101500008093E8000C94850C089584B7877F84BF8E
:1015100088E10FB6F89480936000109260000FBECF
:1015200090E080E80FB6F89480936100909361009A
:101530000FBE0E944A100E94D60C0E94330D80916B
:10154000E20084608093E2008BE398E00E94A01B9D
:1015500078948091C6018430E1F787EC91E00E9495
:10156000E0050E944C1081E091E00E94B80F86EBEC
:1015700091E00E94E0058091C601853089F482EBFC
:1015800091E00E94E0050E94D51B8091C401882350
:1015900091F30E94FD1B882371F30E942B0BEBCF6C
:1015A0000E947A10E8CF292F332723303105C9F064
:1015B00064F42130310581F02230310509F043C057
:1015C00084E790E028E032E042C021323105F1F0BA
:1015D0002232310541F137C082E190E02CE732E060
:1015E00036C099278130910541F08230910541F054
:1015F000892B49F5E4E0F2E005C0EAEFF1E002C032
:10160000ECEEF1E0849190E09F0121C06430D8F4C9
:10161000E62FF0E0EE0FFF1FE05EFE4F20813181EC
:1016200089E090E014C0643070F470E0FB01EE0FCC
:10163000FF1FE85EFE4F20813181FB01EC5EFE4F13
:10164000808190E004C080E090E020E030E0FA018A
:1016500031832083089580E189BD82E189BD09B489
:1016600000FEFDCF8091D8008F7D8093D8008091BF
:10167000E00082608093E0008091E00081FDFCCF7B
:101680000895CF92DF92EF92FF920F931F93CF9323
:10169000DF93EC018B016A010E94A40C811133C01D
:1016A000C114D10439F0F60180819181081B190B16
:1016B000C80FD91FE12CF12C0115110519F18091EA
:1016C000E80085FD16C08091E8008E778093E800E1
:1016D000C114D10449F0F60180819181E80EF91E10
:1016E000F182E08285E00FC00E94A40C882321F3E0
:1016F0000AC089918093F10001501109FFEFEF1AA0
:10170000FF0ADACF80E0DF91CF911F910F91FF9018
:10171000EF90DF90CF9008952091CD013091CE01D0
:101720002617370748F06115710539F42091E80054
:101730002E772093E80001C0B90140E061157105E2
:10174000A9F12091C601222309F443C0253009F4F0
:1017500042C02091E80023FD40C02091E80022FD16
:1017600032C02091E80020FFE9CF4091F3002091A2
:10177000F20030E0342BFC01CF016115710559F006
:101780002830310540F481918093F1006150710956
:101790002F5F3F4FF1CF41E02830310509F040E0A5
:1017A0002091E8002E772093E800C8CF4111C9CFDF
:1017B0000AC08091C601882361F0853061F0809174
:1017C000E80083FD0AC08091E80082FFF2CF80E04C
:1017D000089582E0089583E0089581E008952091BE
:1017E000CD013091CE012617370748F061157105FC
:1017F00039F42091E8002E772093E80001C0B90168
:10180000FC0120E06115710591F18091C6018823EA
:1018100009F440C0853009F43FC08091E80083FDA1
:101820003DC08091E80082FD2FC08091E80080FFDC
:10183000E9CF2091F3008091F20090E0922B6115A6
:10184000710559F08830910540F424912093F100FE
:101850003196615071090196F2CF21E0089709F0A5
:1018600020E08091E8008E778093E800CBCF2111B3
:10187000CCCF0AC08091C601882361F0853061F029
:101880008091E80083FD0AC08091E80082FFF2CFDA
:1018900080E0089582E0089583E0089581E008954E
:1018A000982F973058F59093E900981739F0709178
:1018B000EC002091ED005091F00003C0242F762F12
:1018C00050E021FF19C03091EB003E7F3093EB00D8
:1018D0003091ED003D7F3093ED003091EB003160B1
:1018E0003093EB007093EC002093ED005093F000E8
:1018F0002091EE0027FF07C09F5FD3CF8F708093AA
:10190000E90081E0089580E008958091C70187FF94
:1019100011C08091E80082FD05C08091C60181114F
:10192000F8CF11C08091E8008B770BC08091C60181
:10193000882349F08091E80080FFF8CF8091E8008B
:101940008E778093E80008952091E4003091E500BF
:1019500095E64091EC00842F817040FF22C0809179
:10196000E80080FD1CC08091C601882391F085307D
:1019700091F08091EB0085FD10C04091E400509102
:10198000E5004217530729F39A01915011F784E0BB
:10199000089582E0089583E0089581E0089580E04D
:1019A00008954091E80042FFDECF08950E94440D63
:1019B0000E944C0DE0EEF0E0808181608083E8EDD4
:1019C000F0E080818F77808319BCA7EDB0E08C9127
:1019D0008E7F8C9380818F7E80831092C5010895C5
:1019E0000F931F93CF93DF930E94440D0E944C0DE1
:1019F000C8EDD0E088818F7788838881806888836C
:101A000088818F7D888319BC1092C6011092C20113
:101A10001092C4011092C30100EE10E0F801808121
:101A20008B7F808388818160888342E060E080E0F2
:101A30000E94500CE1EEF0E080818E7F8083E2EE28
:101A4000F0E0808181608083808188608083F801FC
:101A500080818E7F8083888180618883DF91CF91B0
:101A60001F910F910895E8EDF0E080818F7E8083D3
:101A7000E7EDF0E080818160808384E082BF81E0D7
:101A80008093C5010C94F00CE8EDF0E080818E7F2E
:101A900080831092E20008951092DA001092E10023
:101AA00008951F920F920FB60F9211242F933F9318
:101AB0004F935F936F937F938F939F93AF93BF9356
:101AC000EF93FF938091E10082FF0BC08091E200D1
:101AD00082FF07C08091E1008B7F8093E1000E942C
:101AE00080098091DA0080FF1FC08091D80080FFBC
:101AF0001BC08091DA008E7F8093DA008091D9003C
:101B000080FF0DC080E189BD82E189BD09B400FE7E
:101B1000FDCF81E08093C6010E94590905C019BC20
:101B20001092C6010E946B098091E10080FF19C0EC
:101B30008091E20080FF15C08091E2008E7F80934B
:101B4000E2008091E20080618093E2008091D80001
:101B500080628093D80019BC85E08093C6010E9402
:101B600076098091E10084FF30C08091E20084FF1B
:101B70002CC080E189BD82E189BD09B400FEFDCFA2
:101B80008091D8008F7D8093D8008091E1008F7E76
:101B90008093E1008091E2008F7E8093E20080914B
:101BA000E20081608093E2008091C201882311F0FD
:101BB00084E007C08091E30087FD02C081E001C09E
:101BC00083E08093C6010E947A098091E10083FF3F
:101BD00029C08091E20083FF25C08091E100877FCA
:101BE0008093E10082E08093C6011092C20180914F
:101BF000E1008E7F8093E1008091E2008E7F8093F0
:101C0000E2008091E20080618093E20042E060E0C7
:101C100080E00E94500C8091F00088608093F0007A
:101C20000E947209FF91EF91BF91AF919F918F91A7
:101C30007F916F915F914F913F912F910F900FBEC8
:101C40000F901F9018951F920F920FB60F921124AC
:101C50002F933F934F935F936F937F938F939F93B4
:101C6000AF93BF93CF93DF93EF93FF93C091E900BE
:101C7000CF708091EC00D82FD17080FDD0E8109209
:101C8000E9008091F000877F8093F00078940E94B3
:101C9000670E1092E9008091F00088608093F00058
:101CA000CD2BCF70C093E900FF91EF91DF91CF91E1
:101CB000BF91AF919F918F917F916F915F914F9164
:101CC0003F912F910F900FBE0F901F9018951F936B
:101CD000CF93DF93CDB7DEB7AA970FB6F894DEBFE8
:101CE0000FBECDBFE7ECF1E088E08E0F9091F100E0
:101CF00091938E13FBCF0E94D5098091E80083FF5A
:101D00001FC18091C7019091C801492F50E04A300E
:101D1000510508F015C1FA01EA5AFF4F0C947228D8
:101D2000803881F0823809F00BC18091CB018F702F
:101D30008093E9008091EB0085FB882780F9109261
:101D4000E90006C08091C3019091C40191118260A5
:101D50009091E800977F9093E8008093F1001092B3
:101D6000F100C8C0282F2D7F09F0EAC0882319F0A0
:101D7000823061F0E5C08091C901813009F0E0C096
:101D8000933009F080E08093C4012BC08091C90199
:101D9000811127C08091CB018F7009F4D1C080934D
:101DA000E9002091EB0020FF1CC0933021F48091CA
:101DB000EB00806214C09091EB0090619093EB0077
:101DC00021E030E0A90102C0440F551F8A95E2F7D7
:101DD0004093EA001092EA008091EB0088608093C3
:101DE000EB001092E9008091E800877F86C08111A6
:101DF000A7C01091C9011F778091E3008078812BE3
:101E00008093E3008091E800877F8093E8000E9440
:101E1000850C8091E80080FFFCCF8091E300806812
:101E20008093E300111102C082E001C083E080933F
:101E3000C60186C08058823008F082C08091C901F6
:101E40009091CA018C3D53E0950779F583E08A8330
:101E50008AE289834FB7F894DE01139620E03EE0D2
:101E600051E2E32FF0E050935700E49120FF03C0CC
:101E7000E295EF703F5FEF708E2F90E0EA3010F048
:101E8000C79601C0C0968D939D932F5F243149F76B
:101E90004FBF8091E800877F8093E8006AE270E09E
:101EA000CE0101960E948C0B14C0AE014F5F5F4FB4
:101EB0006091CB010E94D30ABC01892B09F440C078
:101EC0009091E800977F9093E80089819A810E9421
:101ED000EF0B8091E8008B778093E80031C0803869
:101EE00079F58091E800877F8093E8008091C201B6
:101EF0008093F1008091E8008E778093E8000E9443
:101F0000850C1EC081111CC09091C9019230C0F493
:101F10008091E800877F8093E8009093C2010E943F
:101F2000850C8091C201811106C08091E30087FD7C
:101F300002C081E001C084E08093C6010E94C10913
:101F40008091E80083FF0AC08091E800877F80933A
:101F5000E8008091EB0080628093EB00AA960FB6B8
:101F6000F894DEBF0FBECDBFDF91CF911F910895D2
:101F700090935A01809359010895E0915901F0918D
:101F80005A01309721F00190F081E02D099480E012
:101F90000895EF92FF920F931F93CF93DF93E091F9
:101FA0005901F0915A013097B1F18C010280F3810F
:101FB000E02D09958091B10182FF2DC080FF04C002
:101FC00088E793E00E94E005E80118E082E7E82E48
:101FD00083E0F82E8091B10180FF0BC088811F92B1
:101FE0008F93FF92EF920E9479060F900F900F90BF
:101FF0000F90115021961111EDCF8091B10180FF0A
:102000000AC080E793E0DF91CF911F910F91FF907D
:10201000EF900C94E005DF91CF911F910F91FF900D
:10202000EF900895E0915901F0915A01309721F015
:102030000480F581E02D0994089520915701309195
:1020400058018217930771F09093580180935701BC
:10205000E0915901F0915A01309721F00680F78103
:10206000E02D099408952091550130915601821771
:10207000930771F09093560180935501E0915901B7
:10208000F0915A01309721F00084F185E02D0994F8
:10209000089508950C9449100E943D1C0E94A106C9
:1020A0000C94FA1DCF93C82F8091B10182FF1EC0FE
:1020B00080FF04C081E993E00E94E0058091B101B6
:1020C00080FF0CC01F92CF938CE893E09F938F9377
:1020D0000E9479060F900F900F900F908091B101A0
:1020E00080FF04C08AE893E00E94E0058C2FCF9126
:1020F0000C9437084F925F927F928F929F92AF928B
:10210000BF92CF92DF92EF92FF920F931F93CF93E4
:10211000DF93CDB7DEB72A970FB6F894DEBF0FBEB8
:10212000CDBF0E94C5069CE5C92E91E0D92E00E0E6
:1021300010E0AA24A394B12C702E802F0E94E707F0
:102140004C01F601419051906F01482659264114E7
:102150005104B1F40F5F1F4F0530110569F78FEF80
:1021600089838A831B820E94461C8160782F9D830D
:102170008C8349815A816B818D810E9433113AC0D1
:102180008091B10181FD0E94F00720E030E07501EF
:10219000022E02C0EE0CFF1C0A94E2F7C701842154
:1021A0009521892B09F12E837F828E209F2091E03B
:1021B000892809F490E098870E94461C8160782F56
:1021C0009A8789874E815F8168858A850E9433114D
:1021D000000F111FF801E45AFE4F80819181E8261B
:1021E000F926F182E08206C02F5F3F4F2F30310584
:1021F00071F6B0CF0E947B2110915B010E94BD0F50
:102200001817D9F00E94BD0F80935B012A960FB674
:10221000F894DEBF0FBECDBFDF91CF911F910F911C
:10222000FF90EF90DF90CF90BF90AF909F908F90F6
:102230007F905F904F900C9452102A960FB6F894AE
:10224000DEBF0FBECDBFDF91CF911F910F91FF90E9
:10225000EF90DF90CF90BF90AF909F908F907F9046
:102260005F904F900895CF93DF93CDB7DEB72B9754
:102270000FB6F894DEBF0FBECDBF4F835887698776
:102280007A878B87DE01119686E0FD0111928A958F
:10229000E9F785E0FE01379601900D928A95E1F706
:1022A00049815A816B817C818D819E810E94451874
:1022B0002B960FB6F894DEBF0FBECDBFDF91CF9146
:1022C0000895CF93882309F4CDC0C82F823859F4DC
:1022D0000E94BD0F81FDC6C089E30E94011B0E94C0
:1022E0007A1B89E30CC0833879F40E94BD0F80FD0E
:1022F000B9C083E50E94011B0E947A1B83E50E94FE
:102300001E1BCF910C947A1B843859F40E94BD0F88
:1023100082FDA8C087E40E94011B0E947A1B87E40B
:10232000EECF8CEF8C0F813A48F48C2F0E94DB2586
:10233000811198C08C2F0E94011BE3CF80E28C0F8B
:10234000883048F4C77081E001C0880FCA95EAF769
:102350000E94401BD6CF8BE58C0F833078F4C53AB2
:1023600029F0C63A31F083E890E005C081E890E0BA
:1023700002C082E890E0CF910C941D1088E58C0F8C
:10238000853108F06FC0C83A61F1C93A69F1CA3ABB
:1023900071F1CB3A79F1CC3A81F1CD3A89F1CE3A6B
:1023A00091F1CF3A99F1C13BA1F1C03BA9F1C23BF8
:1023B000B1F1C33BB9F1C43BC1F1C53BC9F1C63B67
:1023C000D1F1C73BD9F1C83BE1F1C93BE9F1CA3BC7
:1023D000F1F1CB3BF9F1CC3B09F43FC080E090E058
:1023E0003EC082EE90E03BC089EE90E038C08AEEBD
:1023F00090E035C085EB90E032C086EB90E02FC0D6
:1024000083EB90E02CC084EB90E029C087EB90E058
:1024100026C08CEC90E023C08DEC90E020C083E8D7
:1024200091E01DC08AE891E01AC082E991E017C0EE
:1024300084E991E014C081E292E011C083E292E06D
:102440000EC084E292E00BC085E292E008C086E212
:1024500092E005C087E292E002C08AE292E0CF916A
:102460000C943310CF910895882309F44BC082381F
:1024700059F40E94BD0F81FF45C089E30E94011BF2
:102480000E947A1B89E30CC0833871F40E94BD0F4F
:1024900080FF38C083E50E94011B0E947A1B83E500
:1024A0000E941E1B0C947A1B843859F40E94BD0FA5
:1024B00082FF28C087E40E94011B0E947A1B87E4E8
:1024C000EFCF9CEF980F913A58F390E2980F983025
:1024D00050F4877091E001C0990F8A95EAF7892F2F
:1024E0000E94461BDFCF9BE5980F933020F480E0DD
:1024F00090E00C941D10885A853120F480E090E023
:102500000C9433100895882321F00E94401B0C94F2
:102510007A1B0895882321F00E94461B0C947A1B95
:102520000895CF92DF92EF92FF920F931F93CF9374
:10253000DF9300D000D000D0CDB7DEB725E0FC019E
:10254000DE01119601900D922A95E1F7FC01408180
:102550003181F280258122952F7063817481672BF0
:1025600009F4D8C23F3F19F44F3F09F4D3C26C01BC
:1025700049833A8389819A812E830E94C01A182F39
:10258000092F0E94BF1A0E948619E02FE295EF7072
:10259000F0E0E05AFF4F2E810C947228802F807F4C
:1025A000902F9F70092F882311F00295007FFF2044
:1025B00049F0002309F45FC2802F0E94531B0E9440
:1025C0007A1B59C2812F0E943412002309F4A2C23F
:1025D000802F0E94591B26960FB6F894DEBF0FBEBF
:1025E000CDBFDF91CF911F910F91FF90EF90DF90C2
:1025F000CF900C947A1B802F807F902F9F70092F93
:10260000803211F00295007F112319F0113001F191
:1026100029C0FF20A9F0802F222349F1213039F56C
:1026200026960FB6F894DEBF0FBECDBFDF91CF91D7
:102630001F910F91FF90EF90DF90CF900C94631B50
:10264000222319F0213009F465C20E94661B2CC0B8
:10265000FF20E9F0263008F05DC20E943D1B802378
:1026600029F022C0FF20F1F0211115C0802F2696FD
:102670000FB6F894DEBF0FBECDBFDF91CF911F9193
:102680000F91FF90EF90DF90CF900C948312253044
:1026900008F040C209C0F601858180FFECC18F704F
:1026A0008583E4CF2111FBC1802F69C1202F26959E
:1026B0002695237030E02115310521F021303105B8
:1026C000C9F028C2FF2021F0812F902F937002C003
:1026D00080E090E026960FB6F894DEBF0FBECDBF27
:1026E000DF91CF911F910F91FF90EF90DF90CF90EE
:1026F0000C941D10FF2021F0812F902F937002C0A9
:1027000080E090E026960FB6F894DEBF0FBECDBFF6
:10271000DF91CF911F910F91FF90EF90DF90CF90BD
:102720000C943310812FFF2019F00E94012002C069
:102730000E94692026960FB6F894DEBF0FBECDBF6B
:10274000DF91CF911F910F91FF90EF90DF90CF908D
:102750000C94EE20802F837009F078C0F110DAC15C
:10276000812F829586958770880F880F912F9F7093
:10277000C92ED12CE12CF12C082E04C0CC0CDD1C70
:10278000EE1CFF1C0A94D2F714FF12C04FE050E079
:1027900060E070E004C0440F551F661F771F8A95E4
:1027A000D2F7CB01BA01609570958095909503C0E2
:1027B00060E070E0CB01202F269526952370422FF4
:1027C00050E042305105D1F04330510559F16C29A8
:1027D0007D298E299F294130510541F126960FB65A
:1027E000F894DEBF0FBECDBFDF91CF911F910F9147
:1027F000FF90EF90DF90CF900C94AD196C297D295C
:102800008E299F2926960FB6F894DEBF0FBECDBF46
:10281000DF91CF911F910F91FF90EF90DF90CF90BC
:102820000C94C9190E94AD19C701B60126960FB6BE
:10283000F894DEBF0FBECDBFDF91CF911F910F91F6
:10284000FF90EF90DF90CF900C949119FF2019F03A
:10285000802F817001C08695882309F45BC1812F88
:10286000829586958770880F880F912F9F70C92E4B
:10287000D12CE12CF12C082E04C0CC0CDD1CEE1C5C
:10288000FF1C0A94D2F714FF12C04FE050E060E042
:1028900070E004C0440F551F661F771F8A95D2F75A
:1028A000CB01BA01609570958095909503C060E06A
:1028B00070E0CB01202F269526952370422F50E003
:1028C00042305105D1F04330510559F16C297D2931
:1028D0008E299F294130510541F126960FB6F89473
:1028E000DEBF0FBECDBFDF91CF911F910F91FF9043
:1028F000EF90DF90CF900C94871A6C297D298E2958
:102900009F2926960FB6F894DEBF0FBECDBFDF918C
:10291000CF911F910F91FF90EF90DF90CF900C948B
:10292000A31A0E94871AC701B60126960FB6F8941B
:10293000DEBF0FBECDBFDF91CF911F910F91FF90F2
:10294000EF90DF90CF900C946B1A103F41F118F488
:10295000103E48F48BC0123F09F450C0D8F1133F29
:1029600009F460C083C01F70802F8F71FF2021F099
:102970000E94041A812F7BCE0E94251A812F269651
:102980000FB6F894DEBF0FBECDBFDF91CF911F9180
:102990000F91FF90EF90DF90CF900C948A12FF2060
:1029A000A9F0253008F0B6C0802F8F7126960FB69B
:1029B000F894DEBF0FBECDBFDF91CF911F910F9175
:1029C000FF90EF90DF90CF900C944A1A263008F0D9
:1029D000A1C0EACFFF20A1F0802F8F7126960FB6FD
:1029E000F894DEBF0FBECDBFDF91CF911F910F9145
:1029F000FF90EF90DF90CF900C94041AFF2061F3CA
:102A0000802F8F7126960FB6F894DEBF0FBECDBF14
:102A1000DF91CF911F910F91FF90EF90DF90CF90BA
:102A20000C94251AFF2091F0802F8F7126960FB6F7
:102A3000F894DEBF0FBECDBFDF91CF911F910F91F4
:102A4000FF90EF90DF90CF900C94EF1926960FB681
:102A5000F894DEBF0FBECDBFDF91CF911F910F91D4
:102A6000FF90EF90DF90CF900C94E519FF20A1F03C
:102A7000222309F4B1CF812F26960FB6F894DEBF3A
:102A80000FBECDBFDF91CF911F910F91FF90EF90BF
:102A9000DF90CF900C946111222309F4B1CF812FE4
:102AA00026960FB6F894DEBF0FBECDBFDF91CF9153
:102AB0001F910F91FF90EF90DF90CF900C94341204
:102AC000402F4F70612FC6010E949C1D26960FB6A5
:102AD000F894DEBF0FBECDBFDF91CF911F910F9154
:102AE000FF90EF90DF90CF900C94E918402F4F703B
:102AF000612FC60126960FB6F894DEBF0FBECDBF7C
:102B0000DF91CF911F910F91FF90EF90DF90CF90C9
:102B10000C949F1D26960FB6F894DEBF0FBECDBF56
:102B2000DF91CF911F910F91FF90EF90DF90CF90A9
:102B300008950E94601B0E942F1B0E947A1B0E9416
:102B400021220E94EE2080E090E00E941D1080E093
:102B500090E00C9433100E94501B0C9499150E9425
:102B6000C01A292F22952F7030E02C3031054CF4FB
:102B70002A3031056CF4225031092230310588F4B5
:102B800007C02C30310549F02F30310531F009C034
:102B9000803E48F0803F29F406C093FB882780F9E7
:102BA000089580E0089581E00895CF93DF9300D0E9
:102BB00000D01F92CDB7DEB70F900F900F900F90FF
:102BC0000F90DF91CF910895CF93DF9300D000D085
:102BD00000D0CDB7DEB726960FB6F894DEBF0FBE95
:102BE000CDBFDF91CF9108951F93CF93DF93C09115
:102BF000660116E080916701C81799F0D0E01C9F2C
:102C0000F0011D9FF00D1124E859FE4F40815181C4
:102C100062817381848195810E94E4152196C77039
:102C2000E9CFDF91CF911F91089540919801509184
:102C3000990160919A0170919B0180919C01909102
:102C40009D010C94E41580919D0182958F7009F08F
:102C500054C080919A01882309F44FC08091660185
:102C6000A0916701609198017091990140919B0139
:102C700050919C01B6E08A1709F43FC090E04115DD
:102C80005105C1F17F3F11F46F3FA1F1B89FF001F1
:102C9000B99FF00D1124E859FE4F218172132AC00B
:102CA0002081621327C02281211124C02381348115
:102CB0002417350710F421503109241B350B283C0B
:102CC0003105C0F420919D012F70206120939D015A
:102CD00026E0289FF001299FF00D1124E359FE4FB3
:102CE00080818F708061808388E991E00E949112D9
:102CF0000C94F41501968770BECF0895CF92DF92A1
:102D0000EF92FF920F931F93CF93DF93CDB7DEB770
:102D100062970FB6F894DEBF0FBECDBF8C0185E081
:102D2000F801DE011D9601900D928A95E1F7D80118
:102D30004C9111965C91119712966C911297139683
:102D4000CD90DC9014973091980170919901809109
:102D50009B0190919C01009709F46BC17F3F19F48E
:102D60003F3F09F466C1E0909A01EE2009F4C0C02B
:102D700020919D01C816D90628F0F601E81BF90B31
:102D8000CF0104C0809590958C0D9D1DFF24F39478
:102D9000883C910578F0F12C207F09F0C6C07C2D8D
:102DA000D98AC88A89890E94D51588E991E00E944C
:102DB0009112B1C0822F807F09F046C0751314C0F4
:102DC000341312C0611110C02F70206120939D0137
:102DD0000E94151688E991E00E94911280919D0150
:102DE000D80115968C932EC0CD2819F15F3F11F4B0
:102DF0004F3FF9F0F62E61111CC0809166012091C1
:102E0000670136E0821709F45AC090E0389FF0015C
:102E1000399FF00D1124E859FE4F7181571306C0F8
:102E20007081471303C07281711103C001968770CE
:102E3000E9CFF62E662309F418C180919D018160C7
:102E400080939D01F12C11C1751308C0341306C085
:102E5000611104C080919D01D801C3C04D875E8778
:102E60008D859E856A8B0E94AF156A898823E1F162
:102E70006623D1F120919D01822F82958F7090E081
:102E8000029774F0809198019091990198878F83AF
:102E90001986DB86CA862C87CE0107960E9491127E
:102EA00086E0F801A8E9B1E001900D928A95E1F77A
:102EB0000E9423160E941516FF24F394D6C04D8756
:102EC0005E878D859E850E94C01A292F22952F70BE
:102ED00030E0223031050CF0BCC09F7009F0B6C064
:102EE000805E883008F4C1C0C8010E949112E4CF0E
:102EF000C816D90608F453C0F601E81BF90BCF0138
:102F0000883C910508F450C0F12C7C2DD98AC88AE0
:102F100089890E94D515E8E9F1E086E0DF011D927C
:102F20008A95E9F70E941516A0C0751314C03413D2
:102F300012C0611110C080919D01F8018583C80104
:102F40000E94911286E0E8E9F1E0DF011D928A9586
:102F5000E9F7FE2C8AC04D875E878D859E856A8B3A
:102F60000E94AF156A89882309F4BECF662309F44D
:102F7000BBCF20919D01822F82958F7090E00297A8
:102F80000CF48ECF80919801909199019A83898356
:102F90001B82DD82CC822E83CE0101967FCF80956D
:102FA00090958C0D9D1DACCFF62E662309F49CCF19
:102FB00075132EC034132CC020919D0120FD1FC01D
:102FC000822F82958F70D9F0D80115962C93159782
:102FD0008F3049F08F5F982F9295907F822F8F705E
:102FE000892B15968C93C8010E94911286E0F801F6
:102FF000A8E9B1E001900D928A95E1F793CF86E0C0
:10300000F801A8E9B1E001900D928A95E1F72DC091
:103010004D875E878D859E850E94AF15811140CFBB
:1030200080919D01816080939D01C8010E94911251
:103030001CC0662309F458CF4D875E878D859E8519
:103040000E94AF15882309F44FCF2ACF811148CFB2
:103050000CC0243031050CF047CF9F7009F440CFED
:10306000F8019581907F09F03BCF8F2D62960FB6C6
:10307000F894DEBF0FBECDBFDF91CF911F910F91AE
:10308000FF90EF90DF90CF9008951F93CF93DF9341
:10309000CDB7DEB72C970FB6F894DEBF0FBECDBF0D
:1030A0004F83588769877A878B879C87CE010796DD
:1030B0000E947E16882369F08F8198852A853B853A
:1030C000232BF1F19F3F09F063C08F3F09F060C0EF
:1030D00037C086E0FE013796DE01119601900D9211
:1030E0008A95E1F76F817885EA85FB85309741F114
:1030F0007F3F11F46F3F21F12091670130E0C9015A
:103100000196877099274091660150E084179507D2
:1031100009F447C069837A83FD83EC8396E0929F2C
:10312000D001939FB00D1124A859BE4FFE013196D6
:1031300001900D929A95E1F7809367010E94F41532
:1031400016E080916601909167018917C1F1189F7F
:10315000C001112488599E4F0E947E16882379F160
:10316000E09166011E9FF0011124E859FE4F408155
:10317000518162817381848195810E94E4158091DF
:10318000660190E001968770992780936601D9CFF8
:103190004F81588569857A858B859C850E94E415C9
:1031A000CFCF0E94AB151092670110926601E8E93B
:1031B000F1E086E0DF011D928A95E9F7C1CF2C96F8
:1031C0000FB6F894DEBF0FBECDBFDF91CF911F9138
:1031D0000895DF92EF92FF920F931F93CF93DF93A7
:1031E000FC01892B09F48AC0E12CF12CDD24D39455
:1031F000EF0121968491853709F461C058F4843732
:1032000008F04EC0843008F06AC08130D1F08230BE
:1032100071F174C0883709F45DC050F4863709F441
:1032200055C0873709F06AC08E2D0E944D1B54C0CF
:103230009CE7980F903708F061C08F770E94341296
:1032400050C08F010E5F1F4FFE01849190E2980FD6
:10325000983050F48770FD2D01C0FF0F8A95EAF772
:103260008F2F0E94531B14C00E94611113C08F0145
:103270000E5F1F4FFE01C49180E28C0F883060F416
:10328000C7708D2D01C0880FCA95EAF70E94591B9F
:103290000E947A1BE80125C08C2F0E943412FACFBD
:1032A0009F012E5F3F4FFE01C491CC2369F08FE94F
:1032B0009FE00197F1F700C00000C150F6CF9F01D9
:1032C0002E5F3F4FFE01F490E9010BC00E943D1BB1
:1032D000E82E07C00E94501B0E947A1B02C00E9469
:1032E00061118F2D882341F0EFE9FFE03197F1F76D
:1032F00000C000008150F6CFFE017ACFDF91CF9160
:103300001F910F91FF90EF90DF90089508956093C3
:10331000A2017093A3018093A4019093A5010C9442
:1033200099150F931F930091A2011091A301209171
:10333000A4013091A501DC01CB01802B912BA22BA4
:10334000B32B8093A2019093A301A093A401B09307
:10335000A5011F910F910C9499150F931F93009144
:10336000A2011091A3012091A4013091A501DC01DB
:10337000CB0180239123A223B3238093A2019093B6
:10338000A301A093A401B093A5011F910F910C94E8
:1033900099150F931F930091A2011091A301209101
:1033A000A4013091A501DC01CB0180279127A22740
:1033B000B3278093A2019093A301A093A401B0939B
:1033C000A5011F910F910C94991510929E011092D6
:1033D0009F011092A0011092A1010C94991541E057
:1033E00050E060E070E004C0440F551F661F771F77
:1033F0008A95D2F740939E0150939F016093A0015C
:103400007093A1010C94991541E050E060E070E0E8
:1034100004C0440F551F661F771F8A95D2F780910D
:103420009E0190919F01A091A001B091A101482B14
:10343000592B6A2B7B2B40939E0150939F016093E5
:10344000A0017093A1010C94991541E050E060E057
:1034500070E004C0440F551F661F771F8A95D2F78E
:10346000409550956095709580919E0190919F0137
:10347000A091A001B091A101482359236A237B2385
:1034800040939E0150939F016093A0017093A1010E
:103490000C94991541E050E060E070E004C0440FE6
:1034A000551F661F771F8A95D2F780919E019091D4
:1034B0009F01A091A001B091A101482759276A2737
:1034C0007B2740939E0150939F016093A0017093CE
:1034D000A1010C9499150F931F9300919E011091D7
:1034E0009F012091A0013091A101DC01CB01802B33
:1034F000912BA22BB32B80939E0190939F01A093BD
:10350000A001B093A1011F910F910C9499150F93F5
:103510001F9300919E0110919F012091A001309175
:10352000A101DC01CB0180239123A223B32380934B
:103530009E0190939F01A093A001B093A1011F91C0
:103540000F910C9499150F931F9300919E01109168
:103550009F012091A0013091A101DC01CB018027C6
:103560009127A227B32780939E0190939F01A09358
:10357000A001B093A1011F910F910C94991508958A
:10358000CF92DF92EF92FF920F931F93CF93DF932F
:103590008C01C090A201D090A301E090A401F09012
:1035A000A50140919E0150919F016091A0017091F1
:1035B000A101C42AD52AE62AF72ACFE1D0E0D70113
:1035C000C6010C2E04C0B695A795979587950A94C9
:1035D000D2F780FF07C0B8018C2F0E94291D8130CF
:1035E000910531F4219758F7B80180E00E94291D18
:1035F000DF91CF911F910F91FF90EF90DF90CF90CF
:10360000089520910C0130910D01F90132969FEF40
:1036100040E05191581789F09F3F19F4511101C0B2
:10362000942F4F5F4630A9F79F3F39F0F901E90F1A
:10363000F11D97FDFA9582830895089520910C015C
:1036400030910D01F9013296285F3F4F9081981318
:1036500001C010823196E217F307C1F7089581E0A7
:1036600090E0E0910C01F0910D01E80FF91F10823C
:10367000019688309105A9F708958091B0010895C9
:103680009091B001892B8093B0010895809590911D
:10369000B00189238093B00108958093B00108950B
:1036A0001092B00108959091AF01892B8093AF01E2
:1036B000089580959091AF0189238093AF0108957B
:1036C0001092AF0108958093A60108951092A6016B
:1036D000089580910C0190910D01FC0131969C019F
:1036E000285F3F4F80E0919191118F5FE217F307C0
:1036F000D1F70895E0910C01F0910D018091B00196
:103700008083E0910C01F0910D0190818091AF01D7
:10371000892B80838091A601882361F0E0910C01C0
:10372000F0910D019081892B80830E94691B81118A
:103730001092A60180910C0190910D010C94C90F7B
:10374000909333018093320108958295982F9C7C49
:10375000392F36953695282F237344E0249FC001D6
:103760001124932F982B292F2A7A2695892F857536
:10377000880F822B08951F93CF93DF931F92CDB7AD
:10378000DEB799830E94A51B182F9981892F0E946B
:10379000A51B212F30E0322F2227A901482BCA0177
:1037A0000F90DF91CF911F9108958091C6018430D1
:1037B00009F11092B20120E488E190E00FB6F8948C
:1037C000A895809360000FBE2093600083B7817F2F
:1037D000846083BF83B7816083BF7894889583B703
:1037E0008E7F83BF88E10FB6F894809360001092BB
:1037F00060000FBE089508950895CF930E94FB1BAB
:103800000E94C5060E94FC1BC0E08C2F0E94E707A7
:10381000892B29F4CF5FC530C1F780E001C081E07A
:10382000CF9108950C94AB151F920F920FB60F9283
:1038300011248F939F93AF93BF938091B201811115
:1038400013C08091B3019091B401A091B501B091E2
:10385000B6014196A11DB11D8093B3019093B401AF
:10386000A093B501B093B601BF91AF919F918F9195
:103870000F900FBE0F901F90189582E084BD93E0CB
:1038800095BD9AEF97BD80936E0008952FB7F89479
:103890008091B3019091B401A091B501B091B601AE
:1038A0002FBF08952FB7F8946091B3017091B401C0
:1038B0008091B5019091B6012FBF0895CF92DF920C
:1038C000EF92FF920F931F932FB7F8944091B3019B
:1038D0005091B4016091B5017091B6012FBF6A019A
:1038E0007B01EE24FF248C0120E030E0C016D106DD
:1038F000E206F30610F4415051099A01281B390BD6
:10390000C9011F910F91FF90EF90DF90CF90089524
:103910001F920F920FB60F9211248F939F93AF9324
:10392000BF938091B3019091B401A091B501B09182
:10393000B6010196A11DB11D8093B3019093B4010E
:10394000A093B501B093B601BF91AF919F918F91B4
:103950000F900FBE0F901F9018950E94D60CF894F0
:103960002FEF87EA91E6215080409040E1F700C0B8
:10397000000087E090EBDC018093D0019093D101AF
:10398000A093D201B093D3019CE088E10FB6F894E4
:10399000A895809360000FBE90936000FFCF8F3A90
:1039A00048F4883A48F5853A00F58430E0F48130EF
:1039B000A9F131C0883E90F4803EA8F48F3B59F5C0
:1039C0000E94AB152FEF80E792E02150804090409D
:1039D000E1F700C000000E94AD1C1DC0803FD8F080
:1039E00090E09065089590E00895853AD1F0863A88
:1039F000D9F083E890E40895883AC9F0893AD1F083
:103A00008A3AD9F08B3AE1F08C3AE9F08D3AF1F04C
:103A100084EB94E4089580E090E0089581E090E0E4
:103A2000089581E890E4089582E890E4089582EE94
:103A300094E4089589EE94E408958AEE94E4089558
:103A400085EB94E4089586EB94E4089583EB94E485
:103A500008950E948206803EA8F4803C00F58133E0
:103A600009F45CC038F4893209F452C08A3209F48E
:103A70005BC05FC08933B1F08238A1F0853309F4AF
:103A800041C057C0833E41F128F4803E99F0823E08
:103A9000B9F04FC0863E31F1873E71F14AC00E94B5
:103AA000910608959091CF0190FD02C091FF41C011
:103AB00080EE3FC08091CF0180FFFACF89E339C00B
:103AC0008091CF0182FF0CC08091CF0184FF02C0A2
:103AD00080E02FC083EE2DC08091CF0182FFF4CF14
:103AE00082EE27C08091CF0183FF0AC08091CF0171
:103AF00084FDEECF87EE1DC08091CF0183FFF6CF0E
:103B000086EE17C08091CF0185FF06C089E211C003
:103B10008091CF0185FFFACF85E30BC08091CF0163
:103B200086FF06C08AE205C08091CF0186FFFACFEA
:103B300081E30E94CF1C089580E090E008950895ED
:103B4000AF92BF92CF92DF92EF92FF920F931F93AB
:103B5000CF937C01C0E0CC24C394D12C8C2F0E9445
:103B6000E7075C0100E010E0C601002E02C0880FEC
:103B7000991F0A94E2F78A219B21892BB1F0602FCB
:103B80007C2F80E00E94291D9C018E159F0559F015
:103B9000832F807E932F907C11F0803A31F430E0B7
:103BA0002E153F0511F481E009C00F5F1F4F0F3044
:103BB0001105D1F6CF5FC53089F680E0CF911F9116
:103BC0000F91FF90EF90DF90CF90BF90AF9008954E
:103BD000CF93DF93EC018CE290E00E94A01D88233C
:103BE00029F0CE01DF91CF910C94A01D80E0DF91F0
:103BF000CF910895CF930E94591F811102C00E9456
:103C00003F1F8BEA93E00E94E005C5E6C15049F0F2
:103C10000E94C5068FE39CE90197F1F700C0000000
:103C2000F5CF84EA93E00E94E00589E290E00E94EB
:103C3000E81D811122C18AE290E00E94E81D8111F5
:103C40000E943F1F85E090E00E94E81D81110E94C4
:103C5000AD1C0E94641F8093B10187E090E00E9438
:103C6000E81D8823C1F18BE190E00E94E81D8823C4
:103C700051F08091B10181FB222720F991E0922738
:103C800090FB81F90FC08EE090E00E94E81D882330
:103C900061F08091B10182FB222720F991E0922707
:103CA00090FB82F98093B10116C080E190E00E9400
:103CB000E81D9091B101882341F093FB222720F960
:103CC00081E0822780FB93F904C0892F809580FBD7
:103CD00090F99093B1018091B1010E94681F0E94F8
:103CE000761F8093CF0180EE90E00E94E81D88232C
:103CF00041F08091CF01982F909590FB80F98093AF
:103D0000CF0189E390E00E94E81D882359F080915B
:103D1000CF0181FB222720F991E0922790FB81F9C6
:103D20008093CF0182EE90E00E94E81D882359F035
:103D30008091CF0182FB222720F991E0922790FB0E
:103D400082F98093CF0186EE90E00E94E81D8823DF
:103D500059F08091CF0183FB222720F991E092272F
:103D600090FB83F98093CF0183EE90E00E94E81DE1
:103D7000882359F08091CF0184FB222720F991E01C
:103D8000922790FB84F98093CF0185E390E00E9415
:103D9000E81D882359F08091CF0185FB222720F967
:103DA00091E0922790FB85F98093CF0181E390E029
:103DB0000E94E81D882359F08091CF0186FB2227BD
:103DC00020F991E0922790FB86F98093CF0181E161
:103DD00090E00E94E81D882359F08091CF0187FB75
:103DE000222720F991E0922790FB87F98093CF0159
:103DF0008091CF010E947A1F87E290E00E94E81D27
:103E0000C82F8EE190E00E94E81D8111C2608FE111
:103E100090E00E94E81D8111C46080E290E00E9461
:103E2000E81D8111C86081E290E00E94E81D8111C7
:103E3000C06182E290E00E94E81D8111C06283E2CD
:103E400090E00E94E81D8111C06484E290E00E942D
:103E5000E81D882311F0C06802C0CC2329F08C2F04
:103E60000E94711F6C2F03C00E946D1F682F70E0AD
:103E700080E090E0CF910C948719CF9108956DEE7A
:103E80007EEF80E090E00E94A82860E082E090E071
:103E90000E949A2860E083E090E00E949A2860E007
:103EA00084E090E00E949A2860E085E090E00C9425
:103EB0009A2880E090E00E94942821E08D3E9E4F59
:103EC00009F020E0822F089582E090E00C948C2885
:103ED000682F82E090E00C949A2883E090E00C94A4
:103EE0008C28682F83E090E00C949A2884E090E07E
:103EF0000C948C28682F84E090E00C949A28809190
:103F0000B90180FF0BC06091110185E0689FB0018D
:103F1000112475956795759567952BC081FF09C02C
:103F20006091110185E0689FB00111247595679536
:103F300020C082FF07C06091110185E0689FB00139
:103F4000112417C09091BA019923D1F0609110010A
:103F5000961788F72091110185E0289F9001112480
:103F6000929FA001939F500D112470E0CA010E94FE
:103F70005E286038710540F46115710539F002C0A2
:103F800065E070E0862F08958FE7089581E0089539
:103F90008091B90180FF08C060910F0170E07595B4
:103FA00067957595679521C081FF06C060910F01E7
:103FB00070E07595679519C082FF04C060910F018C
:103FC00070E010C09091BA019923C1F060910E0188
:103FD0009617A0F780910F01899FC001112470E00E
:103FE0000E945E286038710528F46115710521F082
:103FF000862F08958FE7089581E0089561E070E0CD
:10400000F4CF803F21F40E947F1F819504C0813F3F
:1040100029F40E947F1F8093BD010895823F21F4FF
:104020000E947F1F819504C0833F29F40E947F1F57
:104030008093BC010895893F19F40E94C81F05C0F0
:104040008A3F31F40E94C81F81958093BE01089574
:104050008B3F21F40E94C81F819504C08C3F29F436
:104060000E94C81F8093BF010895843F21F480916E
:10407000BB01816017C0853F21F48091BB01826044
:1040800011C0863F21F48091BB0184600BC0873F43
:1040900021F48091BB01886005C0883F31F4809194
:1040A000BB0180618093BB0108958D3F21F4809115
:1040B000B90181600BC08E3F21F48091B90182600B
:1040C00005C08F3F29F48091B90184608093B901C4
:1040D0000895803F39F48091BD0187FF6CC0109234
:1040E000BD0169C0813F29F48091BD011816BCF360
:1040F00062C09091BC01823F29F497FF5CC010928E
:10410000BC0159C0833F19F41916CCF354C0893F40
:1041100041F48091BE0118160CF04DC01092BE0102
:104120004AC08A3F29F48091BE0187FF44C0F6CF80
:104130008B3F39F48091BF0187FF3DC01092BF01D2
:104140003AC08C3F29F48091BF011816BCF333C0EC
:10415000843F21F48091BB018E7F17C0853F21F4FD
:104160008091BB018D7F11C0863F21F48091BB01FE
:104170008B7F0BC0873F21F48091BB01877F05C0F7
:10418000883F31F48091BB018F7E8093BB0113C0C7
:104190008D3F21F48091B9018E7F0BC08E3F21F4B9
:1041A0008091B9018D7F05C08F3F29F48091B901BD
:1041B0008B7F8093B9018091BC0181110EC08091E9
:1041C000BD0181110AC08091BE01811106C080919C
:1041D000BF01811102C01092BA0108958091B1010E
:1041E00083FF7EC087EE93E00E94E0058091BB01D3
:1041F0001F928F9382EE93E09F938F930E94790694
:1042000080EE93E00E94E0058091BC01282F3327C7
:1042100027FD30953F938F938DED93E09F938F9380
:104220000E9479068BED93E00E94E0058091BD012C
:10423000282F332727FD30953F938F9388ED93E008
:104240009F938F930E94790686ED93E00E94E0058C
:104250008091BE01282F332727FD30953F938F9300
:1042600083ED93E09F938F930E94790681ED93E015
:104270000E94E0058091BF01282F332727FD30954C
:104280003F938F938EEC93E09F938F930E947906D8
:104290008BEC93E00E94E0058091BA011F928F930E
:1042A00088EC93E09F938F930E94790686EC93E0CD
:1042B0000E94E0058091B9011F928F9383EC93E0F7
:1042C0009F938F930E94790680EC93E00E94E00513
:1042D0008DB79EB74C960FB6F8949EBF0FBE8DBF9C
:1042E0008BEB91E00E9412100E94461C9093B80143
:1042F0008093B70108951F93CF93DF938091B70107
:104300009091B8010E945E1CAC019091BA01992372
:1043100021F02091120130E006C0209113018AE0C3
:10432000289F900111244217530708F486C08091FA
:10433000BC01C091BD01D091BE011091BF0181119E
:1043400007C0C11176C0D11174C0111172C075C0FF
:104350009F3F19F09F5F9093BA01181624F40E94B2
:104360007F1F8093BC018091BC0187FF05C00E9424
:104370007F1F81958093BC011C1624F40E947F1F2F
:104380008093BD018091BD0187FF05C00E947F1F02
:1043900081958093BD016091BC01662339F1C09184
:1043A000BD01CC2319F1772767FD7095872F972FD3
:1043B0000E94632723E333E343E35FE30E94C727BD
:1043C0000E9430276093BC016C2F772767FD7095A2
:1043D000872F972F0E94632723E333E343E35FE3B1
:1043E0000E94C7270E9430276093BD011D1624F448
:1043F0000E94C81F8093BE018091BE0187FF05C047
:104400000E94C81F81958093BE01111624F40E945A
:10441000C81F8093BF018091BF0187FF05C00E9424
:10442000C81F81958093BF01DF91CF911F910C949C
:10443000EE209F3F09F08ECF96CFDF91CF911F9155
:104440000895EBEBF1E085E0DF011D928A95E9F735
:104450001092BA011092B90108958AE096E00E9484
:10446000E0051F9281E08F931F9285E08F938CEB84
:1044700095E09F938F930E9479060F900F900F9075
:104480000F900F900F9008958330E9F128F4813058
:1044900061F0823009F10895853009F462C008F4B2
:1044A00049C0863009F474C0089580911301262F05
:1044B00030E0280F311D2F3F310524F4680F609341
:1044C000130103C08FEF80931301809113011F929A
:1044D0008F9385EF94E072C080911201262F30E017
:1044E000280F311D2F3F310524F4680F609312010E
:1044F00003C08FEF80931201809112011F928F935E
:1045000083EE94E05BC080911101262F30E0280FEC
:10451000311D2F3F310524F4680F6093110103C052
:104520008FEF80931101809111011F928F9380ED85
:1045300094E044C080911001262F30E0280F311DF7
:104540002F3F310524F4680F6093100103C08FEFF3
:1045500080931001809110011F928F938BEB94E058
:104560002DC080910F01262F30E0280F311D2F3FE5
:10457000310524F4680F60930F0103C08FEF80931F
:104580000F0180910F011F928F9382EA94E016C071
:1045900080910E01262F30E0280F311D2F3F31056D
:1045A00024F4680F60930E0103C08FEF80930E0117
:1045B00080910E011F928F9387E894E09F938F93D1
:1045C0000E9479060F900F900F900F9008958330FE
:1045D00081F128F4813059F08230D1F0089585308E
:1045E00009F449C0B8F1863009F456C008958091A5
:1045F0001301681720F4861B8093130102C01092E8
:104600001301809113011F928F9388E794E054C0A7
:1046100080911201681720F4861B8093120102C05A
:1046200010921201809112011F928F9386E694E0FE
:1046300043C080911101681720F4861B80931101FB
:1046400002C010921101809111011F928F9383E596
:1046500094E032C080911001681720F4861B80938B
:10466000100102C010921001809110011F928F93CF
:104670008EE394E021C080910F01681720F4861B1F
:1046800080930F0102C010920F0180910F011F92C1
:104690008F9385E294E010C080910E01681720F49A
:1046A000861B80930E0102C010920E0180910E01B4
:1046B0001F928F938AE094E09F938F930E947906D4
:1046C0000F900F900F900F900895CF93C82F1F92C7
:1046D0008F938FE097E09F938F930E94790681E0FC
:1046E00090E0A0E0B0E0BC01CD0104C0660F771FF0
:1046F000881F991FCA95D2F70E9487190F900F90B3
:104700000F900F90CF910C94AB15CF938732B0F5EB
:104710008E3108F040C28E3009F4BEC100F58730FA
:1047200009F48DC1A8F4863009F039C28091B10135
:10473000817F8E7F8093B10184E197E00E94E00544
:104740008DE09BE00E94E00581E08093C10175C18E
:10475000883009F43FC08B3009F46BC120C2863128
:1047600009F4E0C120F4803109F4AAC118C28931EA
:1047700009F4C1C18B3109F47BC111C2883309F43A
:1047800058C150F4893209F404C2853309F401C2D6
:10479000873209F004C2FDC1833409F4FAC128F458
:1047A0008A3308F4FCC18953F7C1883409F0F7C192
:1047B0000E94AB158CEF9AE00E94E0059FEF23ED7D
:1047C00080E3915020408040E1F700C000000E944B
:1047D000AD1C33C181E19BE00E94E0058BE099E0D4
:1047E0000E94E0050E946D1F1F928F9388E099E060
:1047F0009F938F930E94790686E099E00E94E005DE
:104800000E94641FC82F83EF98E00E94E0051F926A
:10481000CF938EEE98E09F938F930E9479068CEE53
:1048200098E00E94E00582EE98E00E94E0058C2F5F
:1048300081701F928F938FED98E09F938F930E94CA
:1048400079068DED98E00E94E00583ED98E00E94E6
:10485000E005C1FB882780F91F928F9380ED98E0D7
:104860009F938F930E9479068EEC98E00E94E0055A
:1048700082EC98E00E94E005C2FB882780F91F9235
:104880008F938FEB98E09F938F930E9479068DEB27
:1048900098E00E94E00584EB98E00E94E005C3FBED
:1048A000CC27C0F91F92CF9381EB98E09F938F9311
:1048B0000E9479068FEA98E00E94E0050E94761F28
:1048C000C82F8BE998E00E94E0051F92CF9386E9FC
:1048D00098E09F938F930E94790684E998E00E9464
:1048E000E0058BE798E00E94E0058C2F81701F9215
:1048F0008F9388E798E09F938F930E9479068DB7F6
:104900009EB780960FB6F8949EBF0FBE8DBF86E708
:1049100098E00E94E0058FE598E00E94E005C1FB69
:10492000882780F91F928F938CE598E09F938F934F
:104930000E9479068AE598E00E94E00588E498E004
:104940000E94E005C2FB882780F91F928F9385E4BF
:1049500098E09F938F930E94790683E498E00E94E9
:10496000E00581E398E00E94E005C3FB882780F919
:104970001F928F938EE298E09F938F930E94790607
:104980008CE298E00E94E00582E298E00E94E00557
:10499000C4FB882780F91F928F938FE198E09F9343
:1049A0008F930E9479068DE198E00E94E0058BE0EC
:1049B00098E00E94E005C5FB882780F91F928F933D
:1049C00088E098E09F938F930E94790686E098E0B4
:1049D0000E94E0058AEE97E00E94E005C6FB88276A
:1049E00080F91F928F9387EE97E09F938F930E9499
:1049F000790685EE97E00E94E0058DED97E00E9434
:104A0000E005C7FBCC27C0F91F92CF938AED97E052
:104A10009F938F930E94790688ED97E00E94E005AE
:104A20008DB79EB74C960FB6F8949EBF0FBE8DBF44
:104A300004C08BE397E00E94E005C1E0B5C080911F
:104A4000B101C82FC17080FF09C08FEE9AE00E94AB
:104A5000E0058091B101817F8E7F47C083EE9AE0AF
:104A60000E94E0058091B10181608093B101E5CFA2
:104A70009091B10191FBCC27C0F981E0C827892F23
:104A8000C0FB81F98093B101CC2319F086ED9AE047
:104A900027C088EC9AE0CFCF9091B10192FBCC2750
:104AA000C0F981E0C827892FC0FB82F98093B1014A
:104AB000CC2319F089EB9AE013C089EA9AE0BBCFC6
:104AC0009091B10193FBCC27C0F981E0C827892FD1
:104AD000C0FB83F98093B101CC2351F08DE99AE0BA
:104AE0000E94E0058091B10181608093B1015CC0BA
:104AF00080E99AE0A0CF81E89AE00E94E0058FE487
:104B00009AE00E94E0058EE19AE00E94E00581EFC4
:104B100099E00E94E00581EB99E00E94E00586E8BB
:104B200099E089CF88E799E00E94E0050E94BD0FD7
:104B30001F928F938EE599E09F938F930E94790641
:104B400080910B011F928F9387E499E09F938F933D
:104B50000E947906809154011F928F9384E399E01B
:104B60009F938F930E9479060E94521C9F938F936C
:104B70007F936F938DE199E09F938F930E947906C5
:104B80008DB79EB742960FB6F8949EBF0FBE8DBFED
:104B900054CF80E001C08D510E9465234ECF8BE140
:104BA00099E00E94E005C0E08C2FCF91089580E04D
:104BB000089580E00895CF93C82F8091C10181307E
:104BC00071F020F0823009F44BC042C1E0910C0139
:104BD000F0910D018081823209F03CC107C0E09163
:104BE0000C01F0910D018081823261F48C2F0E94C2
:104BF000D725811104C08C2F0E9485232FC081E00E
:104C000090E02CC08C2F0E94D925811126C0C43180
:104C1000E1F070F4CB3081F0C031D1F40E942D224C
:104C200087E097E00E94E00582E08093C10115C013
:104C3000C93259F0C83361F484E197E00E94E0057D
:104C40008BE097E00E94E00508C01092C10104C10A
:104C500085E097E00E94E005FFC081E08170FEC022
:104C6000C43228F5CE3108F0C1C0CB30A1F1D0F468
:104C7000C73009F0D3C08EE18093130182E38093A3
:104C800012018AE08093110184E18093100188E091
:104C900080930F0188E280930E018BEA95E00E94D9
:104CA000E005BFC0C33149F1C431C1F0B7C0CB3456
:104CB00009F4A9C028F4C93289F0C83361F0AEC044
:104CC000C13509F49EC0C23509F499C0CE3409F04B
:104CD000A5C06AE09EC00E942D22A3C08091C001A1
:104CE000882319F01092C0019CC088EB95E00E94C7
:104CF000E00581E08093C101B1C082E995E00E94A6
:104D0000E00580E895E00E94E005809113011F9284
:104D10008F938DE795E09F938F930E9479068BE7A1
:104D200095E00E94E00589E695E00E94E00580910B
:104D300012011F928F9386E695E09F938F930E94B6
:104D4000790684E695E00E94E00585E595E00E94FD
:104D5000E005809111011F928F9382E595E09F936A
:104D60008F930E94790680E595E00E94E0058FE32D
:104D700095E00E94E005809110011F928F938CE3D3
:104D800095E09F938F930E9479068AE395E00E94B5
:104D9000E00585E295E00E94E00580910F011F92F9
:104DA0008F9382E295E09F938F930E94790680E231
:104DB00095E00E94E00589E095E00E94E005809181
:104DC0000E011F928F9386E095E09F938F930E9430
:104DD000790684E095E00E94E0058DB79EB748967D
:104DE0000FB6F8949EBF0FBE8DBF1BC0CE51EC2FE7
:104DF000F0E0E85DFE4F80818093C00112C061E069
:104E000003C061E006C06AE08091C0010E944422B4
:104E100008C08091C0010E94E72203C089EA95E0A2
:104E200013C08091C001882369F01F928F9383EA99
:104E300095E09F938F930E9479060F900F900F90AB
:104E40000F9004C080EA95E00E94E00581E006C072
:104E50001092C10180E002C080E000CFCF910895A0
:104E600004D06894B1118DC0089570D088F09F5718
:104E700090F0B92F9927B751A0F0D1F0660F771FA6
:104E8000881F991F1AF0BA95C9F712C0B13081F086
:104E900077D0B1E0089574C0672F782F8827B85F66
:104EA00039F0B93FCCF3869577956795B395D9F7E7
:104EB0003EF490958095709561957F4F8F4F9F4FF1
:104EC0000895E89409C097FB3EF4909580957095FD
:104ED00061957F4F8F4F9F4F9923A9F0F92F96E946
:104EE000BB279395F695879577956795B795F111BB
:104EF000F8CFFAF4BB0F11F460FF1BC06F5F7F4F58
:104F00008F4F9F4F16C0882311F096E911C0772369
:104F100021F09EE8872F762F05C0662371F096E872
:104F2000862F70E060E02AF09A95660F771F881F41
:104F3000DAF7880F9695879597F9089557FD905859
:104F4000440F551F59F05F3F71F04795880F97FB4D
:104F5000991F61F09F3F79F0879508951216130607
:104F60001406551FF2CF4695F1DF08C01616170636
:104F70001806991FF1CF869571056105089408956B
:104F8000E894BB2766277727CB0197F908950BD0C4
:104F900078C069D028F06ED018F0952309F05AC077
:104FA0005FC01124EECFCADFA0F3959FD1F3950F18
:104FB00050E0551F629FF001729FBB27F00DB11D9D
:104FC000639FAA27F00DB11DAA1F649F6627B00D2D
:104FD000A11D661F829F2227B00DA11D621F739F16
:104FE000B00DA11D621F839FA00D611D221F749F24
:104FF0003327A00D611D231F849F600D211D822F6B
:10500000762F6A2F11249F5750408AF0E1F08823B1
:105010004AF0EE0FFF1FBB1F661F771F881F9150BE
:105020005040A9F79E3F510570F014C0AACF5F3FD2
:10503000ECF3983EDCF3869577956795B795F795F1
:10504000E7959F5FC1F7FE2B880F911D9695879579
:1050500097F9089597F99F6780E870E060E00895F8
:105060009FEF80EC089500240A9416161706180680
:105070000906089500240A9412161306140605065C
:105080000895092E0394000C11F4882352F0BB0FED
:1050900040F4BF2B11F460FF04C06F5F7F4F8F4F50
:1050A0009F4F0895991B79E004C0991F961708F047
:1050B000961B881F7A95C9F78095089597FB072E50
:1050C00016F4009407D077FD09D00E94782807FCD9
:1050D00005D03EF4909581959F4F08957095619508
:1050E0007F4F0895EE0FFF1F0590F491E02D099476
:1050F000AA1BBB1B51E107C0AA1FBB1FA617B707FE
:1051000010F0A61BB70B881F991F5A95A9F7809519
:105110009095BC01CD010895F999FECF92BD81BD56
:10512000F89A992780B50895A8E1B0E042E050E0F0
:105130000C94AF28262FF999FECF1FBA92BD81BDDE
:1051400020BD0FB6F894FA9AF99A0FBE0196089509
:105150000E949A28272F0C949B28DC01CB01FC018C
:10516000F999FECF06C0F2BDE1BDF89A319600B4C0
:0E5170000D9241505040B8F70895F894FFCFCB
:10517E0005380829090609D2089E0801A701280842
:10518E00140A321E3F4D36203103E402AE028E0267
:10519E001A0233024C0265020102030405060708D7
:0251AE000900F6
:00000001FF
